:1000000001308A00F8290000CC22C4183A10AD2033
:10001000F030E730E4372D00CC22C418A020F030B7
:10002000E730E4370D050000CC22C4183A104537FC
:10003000E3326E3269326F00CC22C418A022EE3156
:100040006537E434E4370D050001C637E3373A106D
:100050004537E3326E3269326F00C637E337A0228C
:10006000EE316537E434E4370D050001C637E33778
:100070003A10AD20F030E730E4372D00C637E337D3
:10008000A020F030E730E4370D050001C637E33734
:100090003A104537E3326E3269326F00C637E337C4
:1000A000A022EE316537E434E4370D050001C63790
:1000B000E3373A10AD20F030E730E4372D00C63793
:1000C000E337A020F030E730E4370D05000027309B
:1000D00084008313000803197B280130F800F7011E
:1000E000F70B7028F80B6F284A30F700F70B7628CB
:1000F0007928800B6D2808002D0EF039F7000F309D
:1001000008057704880000000814862808100800F5
:100110000808F700080E0F39F800080083160810C9
:1001200088100811831288100F3083160805F038E4
:100130008800831208150000081400008820780841
:10014000AD00081000000814000088207808AC00FA
:1001500008100F3083160805880083122D0EF70053
:10016000F030F70577082C04F8007808AC00AC1BD9
:1001700094282A1C88102A188814000008110000EE
:1001800008102B0EAC000F30AC052C08AD007C2005
:100190002B080F39AC00AD007C2008002830A300EC
:1001A0000C30A4000130A5000630A600081088100D
:1001B00008110F30831608058800081088100811F0
:1001C0000F308312A70067200130A2002208033CF1
:1001D000031CF2280330AD007C200530A700672007
:1001E000A20AE6280230AD007C200530A700672077
:1001F000A2012208033C031C0929233022078400A2
:1002000083130008A700AA012708AB008E20A20ACA
:10021000F9288A110A121D2A270B0F2912294030AA
:10022000A8001329A80101302602A8072808803851
:10023000A900AA012908AB008E2008002508073A6A
:1002400003192C290B3A03193129063A03193929C4
:10025000023A03193F2944290130A600A7000C21C6
:100260004929AA010130AB008E200230A700672087
:1002700049290130A6000230A7000C214929AA0112
:100280001030AB008E2049290130AA002508AB00B0
:100290008E2008000B08A2008B13831603178C17FF
:1002A0000C140000000083120313A21B8B1703170A
:1002B0000C087F3903199E290313A20003170D08A8
:1002C0000313A30003170F080313A4002208A500BB
:1002D0001E21230803178D000313240803178F0022
:1002E00003130B08A5008B13831603178C170C142C
:1002F0000000000083120313A51B8B1703170C0DBE
:100300000E0D7F3903199E290313A20003170D0850
:100310000313A30003170F080313A4002208A5006A
:100320001E21230803178D000313240803178F00D1
:100330008D0A03198F0A03134A29031703130800B0
:100340000B08A2008B13831603178C170C140000E4
:10035000000083120313A21B8B1703170C087F39AD
:100360000319F6290313A20003170D080313A300B2
:1003700003170F080313A40022080C1EBD299900BF
:10038000230803178D000313240803178F0003139A
:100390000B08A5008B13831603178C170C14000091
:1003A000000083120313A51B8B1703170C0D0E0DF2
:1003B0007F390319F6290313A20003170D0803134D
:1003C000A30003170F080313A40022080C1EE6293C
:1003D0009900230803178D000313240803178F00C7
:1003E0008D0A03198F0A0313A029031703130800AA
:1003F00003081F398300613083168F000F0803172D
:100400008711193003139900A63098009030831299
:100410009800FF30A000831603170908C03989002F
:1004200003131F129F1200300317880083128701E5
:100430008801890183130313CE2883160317090843
:10044000C039890003131F129F1200300317880060
:10045000FC3003138600FF3087008312A0008C1E3F
:10046000992A8C1E312A1A08A10031302102FC3E43
:100470000318992A043EE62A8316061083120610F2
:100480000130A600A7000C21043003178D000030B6
:100490008F0003134A210C3003178D0000308F00AA
:1004A0000313A021992A8316061083120614013023
:1004B000A600A7000C21143003178D0000308F0018
:1004C00003134A211C3003178D0000308F000313E3
:1004D000A021992A83168610831286140130A60063
:1004E0000230A7000C21253003178D0000308F004B
:1004F00003134A212D3003178D0000308F000313A2
:10050000A021992A83168610831286100130A60036
:100510000230A7000C21363003178D0000308F0009
:1005200003134A213E3003178D0000308F00031360
:10053000A021831605148312051CBE2A2108333C12
:100540000319BD2A2108343C0319BD2A83168610DD
:10055000831286140130A6000230A7000C21463019
:1005600003178D0000308F0003134A214E3003170C
:100570008D0000308F000313A021DD2A2108333CB9
:100580000319DD2A2108343C0319DD2A831686105D
:10059000831286100130A6000230A7000C215730CC
:1005A00003178D0000308F0003134A215F300317BB
:1005B0008D0000308F000313A0210230A200C8304C
:1005C000A7006720A20BDF2A2F2A63000A108A14D3
:0C05D0000A118207532A3C2A6A2A822A58
:04400E00A42CFF3FA0
:00000001FF
;PIC16F887
;CRC=ED03  CREATED="17-nov.-24 02:29"
